:020000040000FA
:1000000000400020458F0100818F0100838F010097
:1000100000000000000000000000000000000000E0
:10002000000000000000000000000000858F0100BB
:100030000000000000000000878F0100898F010090
:100040008B8F01001D3A0100899601008B8F010002
:100050008B8F010000000000459001008B8F010094
:10006000AD140100F99B0100FD9401008B8F01008C
:100070008B8F01008B8F01008B8F01008B8F010014
:100080008B8F01008B8F01008B8F01008B8F010004
:100090008B8F0100F58B0100C18C0100E915010077
:1000A000F91501008B8F0100000000000000000026
:1000B0000000000000000000000000000000000040
:1000C0000448054B10B5834203D0044B002B00D0ED
:1000D000984710BD1401002014010020000000000A
:1000E00006480749091A8910CB0F591810B549104D
:1000F00003D0044B002B00D0984710BD1401002002
:10010000140100200000000010B5074C2378002BDC
:1001100009D1FFF7D5FF054B002B02D0044800E0C2
:1001200000BF0123237010BD20010020000000004B
:10013000ECCB0300054B10B5002B03D00449054858
:1001400000E000BFFFF7CCFF10BDC046000000007C
:1001500024010020ECCB0300144B002B00D1124BE8
:100160009D46402292029A1A924600218B460F46E3
:100170001148124A121A20F061FE0D4B002B00D0DC
:1001800098470C4B002B00D098470020002104001A
:100190000D000B4820F080FB20F034FD20002900EA
:1001A00029F013FC20F096FB00000800004000201E
:1001B000000000000000000018010020E02F0020D7
:1001C000410B020010B51C0002AB1B78002904D0C3
:1001D000002B02D10E4810F0A7FDA24207D18242A7
:1001E00014D003000B490C4804F09EFB06E0824249
:1001F00006D9121A0949084804F096FB0FF038FA9C
:10020000844203D2030022000549ECE710BDC0463A
:10021000120A03003B0A0300C4B00200740A030080
:10022000A60A0300F0B50024170087B00C9D0390C8
:100230000491059302940194059B9C4206D1019B75
:10024000039A934240D2254810F06EFD039B9C42D6
:1002500013D26B889B05F6D4019B049A013301935A
:10026000A300D058FF226B88A6001340012B24D195
:1002700003F0AEF90D9B985517E00623298800225C
:10028000C9001943380013F0A7FC002810D16B886F
:10029000DB0506D52A881249124804F045FB0FF009
:1002A000E7F90D9A6968A300D15001340835C3E716
:1002B000029B406801330293D4E7022B01D103F083
:1002C00049F80D9B9851F0E73B68029ADB0893428E
:1002D00001D90548B8E707B0F0BDC046EC0A0300F5
:1002E000D50A0300C4B002000D0B030010B53E2870
:1002F00003D040282ED03C2813D1532924D013D822
:100300004C2921D007D8482950D049291CD042294E
:1003100007D1012348E04F2903D3502914D951298B
:1003200047D0254810F03CFB68293FD006D8642907
:100330003FD0662908D06229F3D1EAE76C2903D0BF
:10034000712936D06929ECD101230420002A00D07C
:10035000136010BD512926D010D849290CD006D8D9
:100360004229D6D0482918D00129DAD1D1E74C2921
:1003700002D0D6D34F29D4D30423E6E76629FBD095
:1003800006D86229C5D064290DD05329F4D0C8E716
:100390006929F1D003D86829C3D1022304E06C296C
:1003A000EAD07129BDD108231800CFE7012302202C
:1003B000CCE701230820C9E72B0B030010B5512817
:1003C0003DD011D849282ED007D8422803D048283C
:1003D00026D0012806D18B5C10E04F284BD017D8CF
:1003E0004C2820D0002309E0682816D00AD86428B9
:1003F00036D066282AD06228F4D18B5601205B00C3
:10040000184314E06C2803D0712811D06928E9D171
:100410009200505825F0B3FB09E05200535EEDE71F
:100420005200535AEAE79200505825F0C3FB10BD22
:10043000D2008A181068516825F092FBF7E7D200C5
:100440008A181068516825F0A6FBF0E70323920094
:1004500050589843030002201843084BC018E6E7A1
:10046000D2008A18106851681CF0A6FC0323020011
:100470009A431300EFE792005058D8E700008080BD
:10048000F7B51700156801AA04000E00FFF72EFF4C
:10049000402C05D1019B043C5A1EAA185D42154010
:1004A0005A213E3C62426241B14289412B183B6075
:1004B000D2B22B00494221F0F9FF04000D004F2E6B
:1004C00008D0532E07D120F081FF00220100200028
:1004D00005F024F8FEBD662E06D1032302249843BE
:1004E000154B2043C018F5E7642E06D11CF064FCC0
:1004F0000323040002209C43F2E75A2E0FD98022E6
:100500000023D20512196B41002B04D1002A02DB13
:1005100025F035FBDEE7290025F022FBDAE700298C
:1005200005D1064B984202D825F044FBD2E72900BA
:1005300025F031FBCEE7C04600008080FFFFFF3F83
:10054000F0B589B0160005AA02931C6801900F004F
:10055000FFF7CCFE019B0500402B06D1059B5A1EE0
:10056000A2185C423C2314400193029A6319136061
:10057000019B3E3B03935A425341DBB20293642FEB
:1005800012D0662F0BD04F2F2AD12800042D00D96E
:10059000042033002200029921F0B1FF2CE030004A
:1005A00002F03CFF0600F0E7300002F037FF1CF0DD
:1005B000B1FB029B0690079108AA9B00D318083B49
:1005C00022001B680299042021F099FF039B043448
:1005D0005A1E934108AA9B00D318083B1E68D4E713
:1005E000B3070BD1104B32689A4207D123002A007F
:1005F0000299300025F090FA09B0F0BD300002F009
:10060000A9FE0600042DC0D900215A2F02D9884224
:1006100000DAFF312A00200020F010FC019B3E2B65
:10062000B3D12B1FE418B0E78CF20200F7B5060037
:100630000F0014001D0064280DD0662804D04F2838
:1006400013D19400E35105E0940018000F1902F053
:10065000E5FE3860F7BD180002F0E0FE1CF05AFB22
:10066000E4003F1938607960F4E703232B400193DD
:1006700011D10E4B2A689A420DD1019A01004020F7
:10068000FFF734FE230043430200FB1801992800C2
:1006900025F042FADEE7280002F05CFE22000300AB
:1006A0003900300021F03EFFD4E7C0468CF2020052
:1006B0000379044AD35C002B00D183790248DB0024
:1006C000C0187047C62D0020089E020010B5040017
:1006D000FFF7EEFF227903680249034804F024F98A
:1006E0000EF0C6FF380B03003CB10200002803D017
:1006F00001210379014AD1547047C046C62D00201C
:1007000010B5FFF7D5FF034B4068C01A431E984150
:10071000C0B210BDCD06000070B506000C00FFF79A
:10072000C7FF0C4D2B002833984204D12A00103209
:10073000002394420BD00023A04208D0436830002D
:100740009847641B3379044AE410D45401231800F9
:1007500070BDC046089E0200C62D002010B50400E2
:10076000080021F068FF0300002C03D0012C06D004
:10077000002003E00348002B00DC034810BD4000CC
:100780002043FBE748A5020040A5020043684B60F8
:1007900083688B60C3680800CB60014B0B607047B7
:1007A000E09E020030B5040087B00D000020042A4E
:1007B00025D1200021F03FFFAB0722D1184B2A683A
:1007C0009A421ED103AA29000CF02AFF102021F022
:1007D00042FF144BE2680360039B616853435B185C
:1007E0004360049B6168019353435B1805998360E0
:1007F0004A43C260002902DAE2689B1A836007B0AC
:1008000030BD002301002A00206802F07BFEE3686F
:1008100058436368C018012340001843EFE7C046FF
:100820000CC40200A49E0200F0B50E00002785B0A3
:10083000110003901D000122032330000097FFF7F1
:10084000C1FC102021F007FF039B0400036001237B
:100850004760C36028689E4205D102F07BFDA0601E
:10086000200005B0F0BD02F075FD6060686802F020
:1008700071FDA060032EF3D1A86802F06BFDE0606B
:100880000028EDD1014810F08BF8C0464A0B030058
:1008900070B50D004A688B680849040026F0A0FA7C
:1008A000EA68012A04D10649200026F0D8F970BD73
:1008B0000449200026F094FAF9E7C046540B0300DF
:1008C00022660300610B0300136810B51400002BAF
:1008D00005D1A42904D1406825F051F9206010BD4C
:1008E000B9235B00994201D18068F5E7024B994238
:1008F000F5D1C068F0E7C046BF020000F0B508C9F6
:100900008DB00593244B06AC013800930194062367
:10091000FFF788FCE068214E214FB04202D006F07C
:1009200039FA07001F4B20690393B04202D006F04A
:1009300031FA03901C4B60690493B04202D006F078
:1009400029FA0490194D38002900FFF7E5FE290027
:100950000398FFF7E1FE29000498FFF7DDFE012070
:100960000523049A0399059D52794979043540423B
:10097000FB5652B2009049B2280018F085FF0023C0
:10098000A2686168280018F005FF2800069918F091
:1009900039FF30000DB0F0BD889F020084F10200E5
:1009A000A4BF0200B4BF0200ACBF0200589E020008
:1009B000F0B50E6887B0736807000C00002B02D1F9
:1009C00012480FF0EDFF486802F0C4FC010002A8D5
:1009D00022F096FF0025032F03D1A06802F0BAFC95
:1009E00005000024039B0193A34208D9301D290070
:1009F00019F032F8049B185501930134F2E702A96B
:100A0000034804F055FD07B0F0BDC046670B030076
:100A1000A8B2020070B505006B6886B00800002B14
:100A200002D10B480FF0BCFF012203A902F04CFEDB
:100A3000039E3400049AA31B01929A4205D921789F
:100A4000281D19F009F80134F4E7024806B070BD1A
:100A5000670B030084F10200F0B505006B6889B0F4
:100A600008001400002B02D10E480FF099FF01225C
:100A700002A902F029FE20000024022205A9029FFB
:100A800002F022FE059E039B0193A34206D9395D25
:100A9000281D18F0E1FF30550134F4E7024809B091
:100AA000F0BDC046670B030084F1020007224368D3
:100AB00004481B791340044AD35C002B00D0034840
:100AC0007047C04648A50200D800002040A502009B
:100AD00010B50124037A05499B005A580448224264
:100AE00000D10448A243CA5010BDC0463C010020BA
:100AF00048A5020040A5020070B5037A064C050027
:100B00009B001859400825F03AF801222B7A9B00E7
:100B100019590A401A5170BD3C01002030B5A2227B
:100B2000A025D200ED05AA580723CA401100164C93
:100B30000340E056421EC90700D5421C022A0ADCC7
:100B4000002082421ADB1149CD5C854201D0C85495
:100B50000230E25430BD072A09DD0C2A10DC0B49B3
:100B60000320CD5C002DF4D10238C854F1E70749C9
:100B70000320C95C0029ECD10800EAE70200E8E79D
:100B800003200C22E5E7C046E0000020D80000204A
:100B90001D4B70B559791879FFF7C0FF022805D1B0
:100BA0001A490B689A1C012313430B60184B59799F
:100BB0001879FFF7B3FF022805D114494B689A1C36
:100BC000012313434B60134C2000FFF771FD124DBE
:100BD000A84203D161792079FFF7A0FF0F4C2000D4
:100BE000FFF766FDA84203D161792079FFF796FFF0
:100BF0000B4C2000FFF75CFDA84203D161792079FE
:100C0000FFF78CFF70BDC046F4BF02003C0100201E
:100C100094BF020084BF0200489E0200CCBF0200C5
:100C2000DCBF0200072203791340014AD05C704701
:100C3000D800002010B5034A0349044826F0D0F834
:100C4000034810BD530C030022740300DCF00200C3
:100C500084F1020010B5034A0349044826F0C0F8A5
:100C6000034810BD7B0B030022740300DCF002007C
:100C700084F102000021F0B5070087B0816421F003
:100C800075FDFB693C6ABB637B6AFC63002B05DA7C
:100C90003A00062140321170013306E0002B07D0E4
:100CA0003A00052140321170013B7B6207B0F0BD74
:100CB000002833D0BB6A002B30D1390004334031D7
:100CC0000B703A6BAE4B786BD3185B001B5A013C30
:100CD0009C42EBD017D9F96A8A4207D30831490000
:100CE00021F0D7FCFB6A78630833FB623B6B5A1C2C
:100CF0003A637A6B5B009C527B6ACDE7013B3B63B6
:100D00007B6A013B7B623B6B9D4A9A185200125AE8
:100D10009442F3D3CAD002230B70C7E73C69631C2B
:100D200003D1002240373A70C0E7380021F0C6FCFA
:100D30000490002800D129E13B00403305930023B3
:100D4000059A13703B69752B5AD0622B07D17B69CA
:100D5000722B5CD001240B230022019208E0722B3D
:100D600051D17B69622B52D0049B012401930A2349
:100D7000390040310A78002A4ED10B70002C07D080
:100D8000380021F0C3FC022C02D1380021F0BEFC57
:100D90003B690293222B01D027230293380021F0D4
:100DA000B5FC0123029A03933B6993420BD11300D4
:100DB0007A69934207D1380021F0A8FC380021F06D
:100DC000A5FC0323039300263C69631C00D1CEE0FD
:100DD000039B012B02D10A2C00D1C8E0039B9E4249
:100DE0001DD338003100443022F01DFE01213800AF
:100DF00021F0BCFC380021F061FC0028A2D155E7AD
:100E000001240A23A8E700240A230194B0E7049BE5
:100E1000022401930B23ABE79A42AFD046E7029B33
:100E2000A34209D1380019004430013605F0FEFF15
:100E3000380021F06BFCC7E75C2C00D091E0380053
:100E400021F064FC019B3D69002B06D038005C2139
:100E5000443005F0EBFF2C0071E0622D51D030D80A
:100E60004E2D77D01AD8222D29D0272D27D0002615
:100E70000A2DDDD02C00303C0326072CE6D87B69F8
:100E8000303B072B5BD8013E002E58D0380021F0B4
:100E90003DFC3B69E400303B1C19F0E75C2D0ED0B3
:100EA0000724612D21D0552DE4D13B0040331B7820
:100EB0000B2B2ED138005C21443005F0B7FF2C00FD
:100EC00013E0742D1FD007D86E2D1ED0722D0BD0BD
:100ED000662DCFD10C2408E0762D18D0E5D302265C
:100EE000782DC7D1002428E00D243B0040331B7827
:100EF0000A2B32D138002100443005F097FF00263C
:100F000096E70824F1E70924EFE70A24EDE70B242C
:100F1000EBE70826752DE5D1043EE3E7380021F024
:100F2000F5FB3D6928000CF047FB002800D144E1A7
:100F3000280024F031FD24012418013EEED20026C1
:100F4000631C00D174E70F4B9C42CED90122059B54
:100F50001A70D4E70C480FF015FFFF2CF6D80B2BB6
:100F6000F4D13800E1B2443022F019FDC7E7039B09
:100F70009E4200D335E73B00032240331A7030E72E
:100F8000FFFFFF7FFFFF1000D80D030020000CF0D3
:100F9000FBFA041E386903D15F2801D07F2842D9AB
:100FA0003D0007233C0040352B704434C1B2200083
:100FB00022F0F5FC380021F0A9FB3869431C1BD155
:100FC000200022F0DAFC002406007E4FA300F9582E
:100FD000300020F0B7F900281ED10D34E4B22C7097
:100FE000102C00D062E6784BA8331A680D23002A33
:100FF00000D102332B7059E60CF0C6FA002808D154
:1010000038695F2805D07F2803D80CF0C9FA00287A
:10101000D6D03B69D9B2CAE7002800DA46E60134E7
:10102000222CD3D142E60CF0BBFA00280FD03E00B0
:10103000396940362E2916D1092333703D004435D5
:10104000280005F0F3FE380021F060FB31E03B6939
:101050002E2B04D178690CF0A3FA0028E7D10025E3
:101060005A4C02234AE0082333703029E6D17A69CA
:1010700018331343623B0024162BDFD8544CDC405A
:1010800001231C40DAE7002C17D1030020229343F0
:10109000452B12D13C3B33706521280005F0C6FE7C
:1010A000380021F033FB396902220B002B3B9343BC
:1010B000C6D03869431CE6D1F8E50CF065FA002883
:1010C00005D039692E290BD109233370B8E7386967
:1010D0000CF066FA0028F4D13B692E2BF1D0E5E53F
:1010E0000B00202293434A2BAAD1EDE7633E9E4397
:1010F000F6B272425641A419013501342678002E09
:1011000002D03A69B242F1D1380021F0FFFA002E44
:1011100002D14037012206E6212E08D13B693D2B42
:10112000F7D1380021F0F2FA40374122FBE52E2EAC
:1011300012D13C003B6940342E2B02D17B692E2B0F
:1011400002D04A232370B1E5380021F0DFFA3800DD
:1011500021F0DCFA0C23F5E72A000134267802217D
:101160003300633B8B43DBB2002B0ED163783969CC
:101170000135994207D1380021F0C8FA2A00652EBE
:1011800003D00234EAE7632EFBD1124B9B5C3A009A
:1011900040321370190004229143422901D0442B9C
:1011A00003D1BB6A0133BB6280E5432902D0452BE2
:1011B00000D07BE5BB6A013BF5E70122059B0400FB
:1011C0001A7092E6B4A00200782E0020970D03005A
:1011D000012040006B0E0300F0B5802787B02B4D37
:1011E00002907F422C78002C1CD063B2002B12DAC4
:1011F0006E787C40E4B2002E14D0013CE4B2FF2CA7
:1012000002D101350135EDE704AB981D01210670CF
:101210000DF012FAF1E704ABD81D012104700DF0B6
:101220000BFAEFE70527029824F0CFFD0124BC421A
:1012300027DA0025164E22002900300007F0F8FEBC
:101240006B4601901B79002B15D0631E1A002900F4
:101250003000039307F0ECFE031E0CD1220029009E
:10126000300007F0B1FEFF22019B2900134030003F
:10127000621E07F0A9FE0135052DDBD10134E4B271
:10128000D5E7013F002FCED107B0F0BDD344030016
:101290001800002010B5C820FFF79EFF004810BDC1
:1012A00084F10200002803D0012807D0002004E0C8
:1012B0008B680448002B00D1034870478B685B00A3
:1012C0001843FAE748A5020040A50200034B486016
:1012D0000B60002308008B60CB6070479CA102006C
:1012E0007FB504000122080001A902F0EDF90022F7
:1012F00021794020FEF7FAFF01000500029818F05E
:10130000A9FD636806001A0A824218D2A368C118B0
:101310006943E06821F0BDF96368E060DBB22A0050
:10132000A06863606843E3687243181801991FF06E
:10133000F3FCA36804489E19A66004B070BD121A9D
:101340001202DBB21343EAE784F10200F7B5FF278C
:10135000456804000191BD431DD101792A00402058
:10136000FEF7C4FF636806003B408027A1683F0189
:101370001F43083141436760E06821F08AF96368E0
:10138000E0601A0AA368013A013372435E43290000
:1013900080191FF053FD2079019BA268E168FFF7D7
:1013A00045F9A36803480133A3606368013BFF3B31
:1013B0006360FEBD84F10200F8B5002207000D0055
:1013C00001004020FEF792FF0600102021F043F9B3
:1013D000084B0400012F00D0074B28002771236021
:1013E0006368A560DBB27043636021F034F9E060AC
:1013F0002000F8BD34A20200F8A1020070B506007A
:101400008AB00C00150012285CD003D8052826D01D
:10141000002454E01B2800D16CE01F28F8D10122E1
:1014200007A9280021F04BFE032300284FD01C42BF
:1014300013D13B4B22689A420FD1012204A920000C
:1014400021F022FA0123079A00930599089B04983A
:1014500021F0FAFF334C002831D1334C2FE0012228
:1014600004A9200021F010FA2800012207A902F0A7
:101470002BF9069B002203936B464020197BFEF755
:1014800035FF01000600089818F0E4FC069BA168EF
:1014900003936B4641180500187BFFF78DFF059BF2
:1014A00004001A000499C06803931FF035FC2A0059
:1014B0000598E3687243181807991FF02DFC200067
:1014C0000AB070BD11002000FFF70AFFF7E7EA0736
:1014D0000DD41D4203D1154B2A689A4207D003232D
:1014E0002B40022BB9D1124B1D40062DB5D011480F
:1014F0000FF048FC012204A9200021F0C5F90122C7
:1015000007A9280021F0DBFD0028A6D0089B059A3A
:1015100000930499079B300024F07BFA9AE7C046B9
:1015200034A2020048A5020040A502008CF202008D
:10153000070080FFFCC70300F0B5050087B00E0070
:10154000012808D08B0726D10B68264A934202D087
:10155000254A93421FD1012203A9300021F0AFFD9B
:10156000002818D0002229004020FEF7BFFE01000D
:101570000700049818F06EFC060001002800FFF731
:101580001BFF320004007A430399C0681FF0C4FBBC
:10159000200007B0F0BD300001F0F6FF071E00D0BC
:1015A000471039002800FFF707FF00210400300032
:1015B0000EF0C6FD0026009000980EF023FE031EDC
:1015C000E6D0002F04D119002000FFF7BFFEF3E79B
:1015D000721C0192E16832002800FFF727F8019E93
:1015E000EAE7C046A8B2020034A2020070B50E7944
:1015F00004000D00012E0DD1194925F030FB3300F8
:10160000AA68E968200003F0EFFE1649200025F0E3
:1016100026FB70BD3200144925F0E2FBAB68002BBD
:10162000F3D01249200025F01AFB0026AB68B34224
:1016300004D80F49200025F012FBE6E7002E03D066
:101640000C49200025F00BFB3200E9682879FEF7F1
:10165000B5FE01220100200001F0ACFD0136E5E7F6
:1016600071450300226603007D45030088450300A1
:10167000E79703008C45030070B5050086B0161E81
:1016800044D0032480680C402BD1214B0A689A4235
:1016900027D103AA0BF0C4FF002802D11D480FF088
:1016A00071FB042E1AD1220029794020FEF71EFE7C
:1016B000049B06000093039B28790193019A009BE9
:1016C000991AFFF779FE0399049A0400521A71439C
:1016D0007243EE68C06871181FF01EFB200006B050
:1016E00070BD0A0000230100286801F00BFF020012
:1016F0002879042E04D1E968FEF760FE0400EDE7C6
:101700003300E968FEF792FF034CE7E71400E5E7D2
:101710000CC402008F45030084F1020037B50C00B1
:10172000110000221D00009201232000FEF74AFD57
:10173000002C05D121000120FFF73EFE040016E039
:101740002968CB0705D48B0713D10C4B0A689A4242
:101750000FD1080001F0FEFD010005000120FFF798
:101760002BFE2A0004000021C0681FF067FB200048
:101770003EBD0120FFF7E0FEE0E7C0468CF202002C
:10178000F0B5060087B000AF7B60F960BA6001F089
:10179000C5F8B06823F020F83861B06823F022F86B
:1017A00023F01AF8032358433B69C01883001D0037
:1017B0007B6114352C2B2CD86B460E35ED08ED00D3
:1017C0005B1B9D4600236C467B61002326606360A3
:1017D000BA687B68F968200008F02CFA154D0021E2
:1017E0006B682000236173686B600AF081FF2369D6
:1017F000061E6B6013D1A3681D687B69002B04D0A3
:10180000200020F057FF002E11D12800BD4607B060
:10181000F0BD280020F02CFF041ED6D1CCE73B6998
:1018200003339B00E3185D687B69002BE8D1280037
:101830000DF01EFF782E00200122030030B513406A
:1018400085B004004510002B14D125491D008842A5
:1018500010D0244988420DD0234B1500984209D05E
:101860000323034009D1214A0168914205D124F0A4
:10187000C3F90500280005B030BD1D4A25002240EF
:10188000062A05D0002B08D11A4B22689A4204D1AF
:1018900001A9200004F09AFAEBE7200001F072FCA5
:1018A000154B984207D1FF23DB05E018032398432B
:1018B00019F036FCDDE7114B984202D0104B9842EC
:1018C00006D101AA6946200001F0E6FD019DD1E79D
:1018D000022201A9200021F0F2FB0028CAD0F5E77E
:1018E00084F1020040A5020048A502008CF202002B
:1018F000070080FF9CDF02001CAB020018EA020018
:1019000078C10200F7B506000F0000920193041E93
:1019100000D044683800431E9841201804308000ED
:1019200020F099FE0C4B050003600C4B5B68436094
:10193000009B8360019BC360002E05D03100A20094
:10194000083110301FF0E8F9002F02D00434A40051
:1019500067512800FEBDC046ACA20200782E0020D0
:1019600070B5060010200D00140020F074FE034B2B
:10197000466085600360C46070BDC04670A202000E
:10198000F7B5CC1CA400070020000E00019220F047
:1019900062FE22000500054B4760866003600C3A3A
:1019A00001990C301FF0B8F92800FEBD14A4020004
:1019B000F0B50D00002785B0110003901E0028002F
:1019C000104B02220097FEF7FDFBAB1C9B0018009A
:1019D000029320F040FE0400039B013D036045603C
:1019E0003368029D8360083D0437BD4202D1200068
:1019F00005B0F0BD0021F0590EF0A2FBE31998608C
:101A0000F2E7C046FFFF000030B58DB00500684624
:101A10000DF008FE011E10D12A1D012024F0A4FFA4
:101A20000122EB6804005B1001335B001343EB60A1
:101A30000DF016FE20000DB030BD0198054A036878
:101A4000934205D0044A00249342F3D00DF010FED7
:101A50000024EFE710B00200B8AD0200044B0B60A9
:101A600003684B60436808008B600123CB607047BC
:101A7000C8A402000139C9B2054B40188030197062
:101A8000044A03781370044AD25C044B1A707047FE
:101A9000E72D0020E82D00207F570300E62D0020D1
:101AA0000131C9B2054B401880301970044A0378DF
:101AB0001370044AD25C044B1A707047E72D002063
:101AC000E82D00207F570300E62D0020074B9842A9
:101AD00006D9074B1818074B4118C91808787047E2
:101AE000054B18184118054BF7E7C046A4920000B3
:101AF000C05503005B6DFFFFD44503000083FFFF6B
:101B000003002022F0B57F254F265F278033040095
:101B10001A7089B003007F3019780A002A406F2AB2
:101B200026D90A003A401900013381310A709842DF
:101B3000F2D17F22B64B1A702300643AFF331A7039
:101B4000E4320292531CB348DBB204930370E318EF
:101B500080331B78B0490B705B2B0ED19B22029B0C
:101B60000A700133DBB20370E254012009B0F0BD0A
:101B70005F2AD8D90A003240D5E72E2B13D1023282
:101B8000D2B20270A21880321278A1480270A34823
:101B9000825C0120024206D1029A0B701218D2B266
:101BA0000292A354CEE10220994A13709B4AD25C60
:101BB000104000D0A1E0002A15D1964820320378C9
:101BC0000A70E31880331A70029B0133DBB2029370
:101BD0000370782B01D8E254B4E19B23029AA354FA
:101BE000049B0B70C1E716007F2552B2AE430E7006
:101BF000002A03DB8A4B8B4A1A60B7E7413B8A4ACB
:101C0000DBB28A49D25CCB5C120213430393039B81
:101C1000002101339BB218000393FFF757FF03061F
:101C2000F5D5012300260127794D2B703900039843
:101C3000FFF74CFF7B1CDBB2019328285FD1002EFD
:101C400000D02F702D780135EDB229000398FFF7F1
:101C50003DFF6B1CDBB2292854D17F2606930699E1
:101C60000398FFF733FF069B30400133DBB23D287A
:101C70004AD10026684B049A1870664B1A70644B60
:101C8000019A1A70049B0593059B0199E318803310
:101C90001B7803980793FFF719FF079B9842B6D16B
:101CA000019B0133DBB20193AB422FD1002E02D056
:101CB000584B059A1A70049D013FFFB2544B3900EE
:101CC00003981F70FFF702FF534E030600D509E18A
:101CD000504B7F211870514B1B5C1A005BB28A433A
:101CE0003270002B18DA4B4B013DEDB21D706319B9
:101CF00080331B789842DFD089E74D4B86E7012679
:101D0000019F93E71D00A0E70693A8E7059B012626
:101D10000133DBB20593B7E7307020281BD02328AE
:101D200025D02E282CD0262832D040284ED05E2810
:101D300056D02B285CD03A2800D02EE1202629004E
:101D40002000FFF797FE344A137833401370B3D066
:101D5000304B1D78F3E729002000FFF78BFE0023AE
:101D6000F356002B00DA52E72A4B1D78A4E729002E
:101D70002000FFF77FFE402233781342F4D146E77C
:101D800029002000FFF776FE33781B07ECD43EE7EE
:101D900029002000FFF76EFE1022337813403370C5
:101DA000E2D11C4B1B78E118803109783170482949
:101DB00000D02CE7013B1749DBB20B70E3188033EE
:101DC0001B789343432B00D021E7CDE72900200067
:101DD000FFF750FE0422337813403370C4D116E766
:101DE00029002000FFF746FE33789B06BCD40EE79F
:101DF000084B013DEDB21D70651980352B78452BE0
:101E0000B2D010229343492B00D000E7ACE7C04684
:101E1000E82D0020E72D0020E62D00207F5703004D
:101E200064000020C045030005580300EB57030081
:101E3000A59200006B1C924ADBB21370E31880334A
:101E40001B7890490B70452B36D1A81CC0B22318C3
:101E500080331B788C4E33708C4EF656002E02DB8E
:101E6000874B1D783FE010700B70522BF8D0532B2E
:101E7000F6D0442BF4D04C2B08D10335EDB21570BD
:101E8000651980352B78592BEAD0C0E6462B00D057
:101E9000BDE6EB1CDBB21370E31880331B780B70CC
:101EA000552B00D0B3E60435EDB2157065198035B9
:101EB0002B784C2BD4D0AAE6492B00D0A7E6AB1C3C
:101EC000DBB21370E31880331B780B704E2B00D0FD
:101ED0009DE60335EDB21570651980352B78472BDB
:101EE000BED094E6059D019B03980133DBB20193BC
:101EF000019A654B11001A70FFF7E8FD019B069AE5
:101F00005F4F934220D100257F272E00019903982F
:101F1000FFF7DCFD03003B403D2B04D0029A013269
:101F2000D2B20292A354019A0132D2B2010600D475
:101F3000A2E0002E02D0544A01991170514A137048
:101F4000059B0493049AFDE5504B7F211B5C4D4E8D
:101F50001A005BB28A4338703270002B08DA013500
:101F6000EDB2631980331B783D708342BBD04EE6DF
:101F70003070202816D023281ED02E2826D02628C0
:101F80002DD0402848D05E2851D02B2858D020266C
:101F90003A2864D0252800D14CE73D4B3D4A00202B
:101FA0001A60E3E529002000FFF77AFD0023F356CD
:101FB000002B00DB54E72AE629002000FFF770FD24
:101FC00040223378134200D04AE720E6290020005F
:101FD000FFF766FD33781B0700D541E717E62900B8
:101FE0002000FFF75DFD102233781340337000D0DE
:101FF00036E73B78E118803109783170482900D004
:1020000005E60133DBB23B70E31880331B78934362
:10201000432B00D0FBE523E729002000FFF740FD1C
:10202000042233781340337000D019E7EFE529001C
:102030002000FFF735FD33789B0600D510E7E6E575
:102040000135EDB23D70651980352B78452B00D1F7
:1020500006E710229343492B00D0D8E500E729007A
:102060002000FFF71DFD074A13783340137000D19D
:1020700039E7034B1D78F2E70192012646E7C04697
:10208000E72D0020E62D0020E82D00207F570300DB
:1020900064000020CA450300F0B50E0011000022C4
:1020A00085B0B71C03901C0030000D4B0092BF00A0
:1020B000FEF788F8380020F0CEFA466006000500EA
:1020C000039B083F03600836E719BC4202D1280091
:1020D00005B0F0BD002101CC0EF032F801C6F4E7E6
:1020E000FFFF000010B50B790349002B00D1034915
:1020F00024F0B5FD10BDC046F80D0300ED0D030042
:1021000037B50C00110000221D00009201232000B1
:10211000FEF758F8002C05D0286801F059FA034B57
:10212000002800D1024B18003EBDC04648A5020061
:1021300040A50200F0B5124B87B003AD40C901388D
:10214000009301950323FEF76DF868680D4F1E2478
:10215000B84202D021F018FB44B2A8680023B8426C
:1021600002D021F011FB43B27068039943710471EE
:1021700016F0D0FD706817F037F9380007B0F0BDE1
:1021800000A6020084F1020030B5124B8BB003AC04
:1021900020C90138009301940323FEF743F86168D6
:1021A00006A821F0ADFB039B089A5900237A0093FF
:1021B0006868079B15F04AF9021E05D006490748D2
:1021C00002F0B2FB0DF054FA06A9054803F070F9CD
:1021D0000BB030BD18A602001F5803005CAF020010
:1021E000A8B2020030B5114B89B002AC20C9013849
:1021F000009301940323FEF715F8012205A96068F6
:1022000001F062FA029B059A5900237A00936868EC
:10221000069B15F02BF9021E05D00549054802F072
:1022200083FB0DF025FA044809B030BD30A602004A
:10223000315803005CAF020084F102000021F8B5C0
:102240004768080021F0FCFD08250600B1223B6824
:10225000D2009D5080220020920019009850012247
:10226000FC319A6088605A61104A8868002803D15E
:10227000002A19D0013AF8E70024A24204D00C4AFF
:102280009C5863425C41E4B2380017F0ADF8002C72
:1022900005D001216B001943300004F0DFFE013549
:1022A000782DD3D13000F8BD1400EDE710270000E1
:1022B000C4040000002313B5044A046A090500930E
:1022C000890C8A58A16B20F0F5FC13BD74A602009E
:1022D000F0B587B000931B7804000F0002922A2B00
:1022E00005D18268525C002A01D0A62A14D11A00B6
:1022F000213A022A2DD8A568E8190378032B5CD16E
:1023000004A9666820F0A0FDAB19984206D1676069
:102310000499200020F0FCFC07B0F0BD0378032BEB
:102320004BD105A920F090FD009B1B78212B04D1F7
:10233000049B059A13430493E6E7222B03D1049BE5
:10234000059A5340F7E7232BDED1059B049A1340EF
:10235000F1E71A00243A022A00D986E0A368D819C6
:1023600001930378032B28D1636804A9039320F019
:102370006BFD0600019B039A9B189E42C7D0B37861
:10238000B01C7578032B18D105A920F05DFD06005F
:10239000372D35D1059A1F2A0FDC4249049B114184
:1023A00099420ADBC021090611418B4205DB9340AB
:1023B0000493049A53005340DCD500226368029DC5
:1023C000DB1B0193561CED0969D1019B0135DB092B
:1023D000FCD1023252193900200021F0F5FA040034
:1023E000009B029A1B7831001A330370013020F0F1
:1023F000E3FB701C2018019A290020F0DDFB8BE71D
:10240000392D08D1059B1F2B01DD1F230593049B4C
:10241000059A1341CCE72F2D03D1049B059A9B18F5
:10242000C6E7302D03D1049B059A9B1AC0E7312DD6
:1024300009D10599049807F0D9FA0028BDD1059B68
:10244000049A5343B4E7332DB7D00599352D06D1FF
:102450000029B2D0049822F083F90490A9E700295A
:10246000ABD0049822F08CF9F7E7272BA5D1A3680D
:10247000D8198378032BA0D14578023020F0F3FCE3
:102480002F2D01D1049042E7302D06D14042430068
:102490000490584000D43AE78FE7C043F2E7320097
:1024A00090E7C046FFFFFF3FF0B597B00890C0200F
:1024B000002560230AAC80000F00160025706360C1
:1024C000A56020F0D5F82561E0606561A561E56152
:1024D0002762E562A84218D1C449C54820F028FF08
:1024E0000023060013930D9820F0E4F8002E00D18D
:1024F000E1E10023BA6B3968300002F081FA38005C
:1025000020F0B1F930000DF0B3F83822002E03D0DE
:102510000232022E00D02A000026B6490096920010
:1025200052582000B96B330020F0C4FB102020F07B
:1025300092F81021040021F0D2F90AADAB682A7894
:10254000002B00D194E1002AC6D1EA68013BAB60C0
:10255000DB00D318DA78A7499200525802921A6821
:102560009D881202120A0592029ADB88527806921E
:102570000F2206990A400492002D2DD03022039399
:10258000069B1340102B29D0202B65D0002E00D0A5
:1025900047E10123069A1A400992099A02992A40B2
:1025A0005300CB1880215B88490107931B0B1B0349
:1025B0008B4200D04DE13B00079940331B78090561
:1025C000090D8B4200D02BE1002A00D123E1380015
:1025D000FEF750FB0135E0E76368CFE7002D01D03F
:1025E000002E35D08022390052014031049BAB428D
:1025F00001D80126A1E7029B6E009B195B88180B8E
:102600000003904213D108781B051B0D984221D17D
:1026100021000AA820F08BFB002819D13B00403391
:102620001B78052B00D03AE17349744856E7049AA9
:102630006B1C934206D2039A059900920AA8029A4B
:1026400020F038FB029B9E1971880AA8FFF732FE22
:10265000002672E70135C9E7002E0BD0029A6B0005
:102660009B5A1B0B032B47D10121200021F077F946
:1026700000230370049BAB4242D880200026029BBB
:10268000049A02335100C9184001994271D1A368DC
:10269000039A981800230493A2686368D318984299
:1026A00072D3029B1B78052B01D00C2B00D1012685
:1026B000029B597840230B405842434149B25B4248
:1026C0001E40002900DA01260025039B0695D0183C
:1026D0000795049B9D425ED1002E02D1079B012BE2
:1026E00069D00699200021F09EF9029B059A039972
:1026F0002000FFF7EDFDABE7012D00D879E78DE76E
:102700008021029B6E009E19738849011A0B1203E7
:102710008A4225D13A0040321278DBB29A421BD16C
:10272000072A07D1B96CF86C09F064FD010020009C
:1027300020F0B6FA002D0AD1029B5B787F2B06D9D8
:102740000E9B2000591C06930E9120F0E1FA3800F0
:10275000FEF790FA01358DE7002D00D149E75DE7DE
:10276000039A6B1C00920599029A0AA820F0A2FA1B
:102770006AE71A88150B2D03854203D1D2B2062AC7
:1027800000D90126023380E7049B01210133049321
:1027900020F035FA80E7069A037801320692002B82
:1027A00004D0079B0133079300230693012120F0F7
:1027B00026FA01358DE7A268039B944663441D0009
:1027C000049B9E4200D143E72B78002B07D1A368DE
:1027D0000122E91A200021F02EF90136F0E7280045
:1027E000012120F00CFA0500F7E7C0464458030029
:1027F000A8AE020074A602006C5803007CAD020073
:10280000012D00D1F5E601232A001A402ED0049AAA
:10281000032A0DD002E721000AA820F088FAD9E6A1
:102820000135049B022BEBD10023012D00D1E0E602
:10283000069A691ED20705D5029A9288120B012AC0
:1028400000D16908012900D04FE7002B00D1FFE635
:102850004BE7039A059900920AA86B1C029A20F094
:1028600029FA07990AA8FFF725FD66E61300DFE7B6
:10287000002A00D030E63B0040331E78002E00D006
:10288000CCE66368002B00D1C8E62B692000591CF8
:1028900020F03EFAA3686B62EB69AB6223E6022B81
:1028A00001D10A49C1E60A3B09480A49012B00D86F
:1028B00014E6094912E638001FF0D5FF089A13AB59
:1028C00013CB13C2089817B0F0BDC0467E58030062
:1028D0004CB00200B2580300D9580300014BD86035
:1028E0007047C046782E0020034B82B0D86801ABF9
:1028F000C01A02B07047C046782E0020014B186104
:102900007047C046782E002010B54E21024820F0B6
:1029100008FD0CF0ADFEC046D4AF020007B5054A75
:1029200001ABD1681269CB1A9A4201D8FFF7ECFFCC
:1029300007BDC046782E002010B500F06FFD044999
:1029400018F0E2F817F094FC23F03FFA014810BDAC
:1029500000007A4484F1020010B500F0FBFC00286E
:1029600001DD23F032FA014810BDC04684F10200B7
:1029700010B50400080000F0EDFC64102018034CB2
:10298000400020400124204310BDC046FEFFFF7FD1
:1029900010B500F0DFFC002801DD23F012FA014839
:1029A00010BDC04684F1020010B523F026FA034B97
:1029B000400018400123184310BDC046FEFFFF7FB2
:1029C00010B523F016FA034B4000184001231843BA
:1029D00010BDC046FEFFFF7F0523020070B5094C05
:1029E000094D2068434309489B189B0018582B68E1
:1029F0002260C0180F231940090128600DF038F932
:102A000070BDC04644010020502B002058A9020090
:102A1000A839030000B5080006292ED817F006FAD9
:102A2000040A10161B2128009A18E223DB00D21892
:102A3000107800BDC4329200D05C8006800EF8E7AA
:102A4000C4329200D05AC004400EF2E7C432920061
:102A5000D0580003F8E7C43292009A189078000921
:102A6000E7E7C43292009A18D0780007000FE0E739
:102A7000C43292009A18D078F1E7024B024A002043
:102A80001A60D6E764000020F1580300A83910B599
:102A900004000800062949D817F0C8F9040A141FD1
:102AA0002A343F00E221A218C9005218137010BD49
:102AB0003F210B401800C4329200135D8B43034347
:102AC0001355F4E77F21C432920019401948135B73
:102AD000890103400B431353E9E77F21C43292007D
:102AE00019401059144B490303400B431351DEE7BF
:102AF0000F20C4329200A2181901937803400B43AF
:102B00009370D4E70F210B401800C4329200A21832
:102B1000D3788B430343D370C9E70F20C4329200AC
:102B2000A218D1781B0101400B43F4E7034B044A80
:102B30001A60BCE73FE0FFFFFF1FF0FF64000020CA
:102B40000F590300F0B5D2B285B00E0002930721F1
:102B500013000B40013BDBB2042B02D9294C2A4D58
:102B600025608A431F02002A24D1284B3578C45C93
:102B7000274B2409E443E4B22D1BDB19EDB2039388
:102B800008276319039ADBB2D35C5A00D2B25BB256
:102B90000192002B33DA1A210320013FFFB2FFF725
:102BA0001BFF019B002FF0D10134E4B2002CE7D1D0
:102BB00035701AE0D4431749E4B2CE5C0825144BB3
:102BC0001B19DB5D5A00D2B25BB20192002B0FDA07
:102BD00005210220FFF700FF013DEDB2019B002D12
:102BE000F0D10134E4B2002CE8D1029805B0F0BD78
:102BF00031000120FFF7F0FE002EE9D0ECE70621BE
:102C00000420CAE764000020FC58030019070000F4
:102C1000875E0300E26403000022F0B505000F00A8
:102C2000FF200F248BB008AB654EDA710100C43170
:102C3000890069188B781A09B25C2340120113438A
:102C4000CA788B7013071B0FF35CA2432340134316
:102C50001A09B25C234012011343CB700138E5D24C
:102C6000E223DB00EE5CB308F31ADBB20493554BAE
:102C70001B68002B0BD0E222C4218120D2008900E6
:102C800000013B00AA186918281804F0D3FE00249C
:102C90004823029403930194009481222B1912017A
:102CA0009B181B78180005930723984320D008A988
:102CB0002300059A07312800FFF744FF0230C4B211
:102CC000023FFFB2002F78D02B780393013EF6B27B
:102CD000002E47D1E2222B19D2009B181E78B30890
:102CE000F31ADBB204930023029301930093D4E719
:102CF000354B009A9C469A5C2300C4339B00EB182A
:102D0000997809090A4331498A5C01990792624618
:102D1000DB78525C1907090F0A432C491B098A5CAE
:102D20002B490692029A8A5C06991343079A8A18DD
:102D30002649C95C01238918FF2A00DC031CC91835
:102D4000882309061B06C918090F0020FFF744FE57
:102D5000039B013BDBB20393002BB7D10134E4B2F8
:102D6000013FAEE7049B013BDBB20493002B02D191
:102D7000059B002B18D12200C4329200535D0099AC
:102D80009B069B0ECB18DBB20093535B0199DB04CF
:102D90005B0ECB18DBB201935359029A1B035B0EF7
:102DA000D318DBB2029378E708A92300059A07310C
:102DB0002800FFF7C7FE04008CE70BB0F0BDC0464B
:102DC0000B5A0300442A0020D7630300E35B03008F
:102DD000875D0300064B1B5C002B05D0054B185C80
:102DE0004843C011C0B27047034B185CFBE7C046B4
:102DF000335D0300AC5B03006C5A0300064B1B5CA5
:102E0000002B05D0054B185C4843C011C0B2704779
:102E1000034B185CFBE7C046335D0300E764030027
:102E2000BC5A0300F0B5037A8DB004007F2B00D1AB
:102E300057E10300070000250933FF3308370993E2
:102E400001953E787F2E00D087E000230693019302
:102E500006998B00E31803931A7A481C1B7BC0B2B7
:102E600006907F2B00D11BE19F49CE5C8D5C9F4972
:102E7000AE4200D0F1E08D5CCB5C0493039B597AA9
:102E8000019B5918CBB20193049BEB18DBB207935B
:102E9000023B1B06DCD4A827019B5D1BEBB205930C
:102EA000A82F00D0E1E0039B039A5B7A527B5B087A
:102EB000520899180291019901988A18E221C31ABF
:102EC000D2B2DBB2C900A218E31852185B18157809
:102ED00018782D1AEDB27F222B006DB29343089320
:102EE000EB17E8185840029917F024F92800CBB2E4
:102EF0000299099317F038F8059A00251600C3B215
:102F00000A93029B9B18DBB20B933200390020001E
:102F1000FFF77EFD0A9B01360B9AC018F6B2C3B2CA
:102F2000964200D1B6E0099AAD18029AEDB2AA42D3
:102F30000DD8AD1A20216A4652181278EDB252B25D
:102F4000002A00DAA4E0002B01D00133DBB232000A
:102F500039002000FFF79AFDD7E7012E77D12B002B
:102F60003100019A200020F011F8BA78604BA17866
:102F70009B185B7830000193FB780893FFF72AFFDA
:102F80003F23E178034030000293FFF737FF7F22B1
:102F9000584B9B5D1A40584B03929A5D0F231A4081
:102FA0000492564A925D1A400592554A925D1A4023
:102FB00006923F22534B9B5D07937B78EB18DBB265
:102FC0000A93029B134002937F23184083019C467F
:102FD0002A003F21C4329200135D0F268B430299D1
:102FE0000B431355135B48490B4061460B43135386
:102FF000039B10595903454B03400B430498190C8C
:103000003140000113510843A21890701B0E05981F
:10301000B3430699034309011E400E43D670812233
:103020006319079912019A181170E222D2009B18B5
:103030000899019A013552181A700A9BEDB29D4207
:10304000C6D1099B0437BB4200D0FAE6FDE6022E4A
:103050008BD12B00019AFF2184E72D48AE4201D984
:10306000C55C09E78D5C835C07E7049B019A390026
:103070009A18D2B22000FFF7CBFC059A0500390060
:103080002000FFF7C5FC079B2D1AEDB2029322E743
:10309000013B5BE70137FFB2AF2F00D000E7D7E677
:1030A000023189006118019B497859186368C9B2D7
:1030B000002B13D1E22381221648DB001201E31812
:1030C000A518001B1A18C4329200125D1E789206D1
:1030D000D20EB21A1A7001339D42F3D12000FFF7CD
:1030E0009BFD0DB0F0BDC0461C5A0300E35C03001D
:1030F000D76403000C5B03001B5903006B590300EA
:10310000BB590300876303003FE0FFFFFF1FF0FF91
:103110005C5B0300F0F8FFFFF7B501911149040073
:103120001700002523F09BFD7B68AB4204D80E49B5
:10313000200023F094FDF7BD002D03D00B492000A3
:1031400023F08DFD019BAE009A5909492000BE195C
:1031500023F046FE0122B168200000F02BF8013573
:10316000E2E7C0462B6E0300226603008C45030095
:103170001E65030010B54A68014923F031FE10BDF9
:10318000A29A0300074BC2070AD4074A074B024022
:10319000062A05D00322064B0240022A00D003680B
:1031A000180070478CF20200070080FF9CDF0200CD
:1031B0001CAB020070B50D0004001600FFF7AEFB5B
:1031C0002800FFF7DFFF8368002B04D032002900BE
:1031D0002000984770BD42680249200023F000FE9D
:1031E000F8E7C0466666030010B50A000100024811
:1031F000FFF7E0FF10BDC046DCF00200F7B50500A8
:1032000008000E0020F098F8002810D001AA6946A6
:10321000300001F029FC009B002B08D01749280042
:1032200023F01DFD009CE71EA400002F09DA3100E9
:1032300028000222FFF7BEFF2800114923F00FFDEE
:10324000F7BD019B28001A1911000C3A08390B68C8
:1032500012680C4923F0C4FD019B1B19043B1A683A
:10326000002A06D10649280023F0F9FC033F0C3C54
:10327000DBE70549280023F0B3FDF7E724660300E8
:10328000CC780300486603005D66030010B50400B7
:10329000FFF778FF054B0069984203D0431E984121
:1032A000C0B210BD200024F0C9FFFAE7795A01002E
:1032B00070B505000C0001208D4203D0214B9D42CA
:1032C00001D1002070BD9942FBD001231D4204D0E2
:1032D0001942F6D12B000D001C002A001A4B1A408F
:1032E000062A05D0AA0711D1184A296891420DD1A2
:1032F0002340062B05D0A307E3D1144B22689A4242
:10330000DFD12100280002F011FDDBE72340062B6E
:10331000D7D0A30703D10D4B22689A42D1D0280001
:10332000FFF730FF8369002BCBD0220029001B2040
:1033300098470028C5D0064BC01A43425841C0B236
:10334000C0E7C04684F10200070080FF9CDF020056
:1033500048A50200104B10B5984219D00F4A01231E
:10336000904217D0184201D0184110BD830706D1F2
:103370000B4B02689A4202D10AF0B2FAF5E71FF04D
:1033800087FE08490200084801F0CEFA0CF070F9F7
:103390000020EAE71800E8E740A5020048A502007F
:1033A0008CF20200EB650300C4B0020010B5C30745
:1033B00005D4830706D1054B02689A4202D122F058
:1033C0001BFC10BDFFF7C6FFFBE7C0468CF20200F6
:1033D0000F4B70B50D000124984204D100230B60FF
:1033E0002300180070BD0B4B984201D10C60F7E729
:1033F0000300234002D040102860F1E78207F0D19B
:10340000054A01689142ECD10AF06AFAF4E7C04635
:1034100040A5020048A502008CF20200184B10B52E
:10342000984228D0174B984227D0C30703D54010A5
:1034300017F096FE10BD0323184206D1124A016808
:10344000914202D122F0E1FBF4E702001A40022A85
:1034500008D10E4A0240062A04D0FF22D205801865
:103460009843E7E71FF014FE09490200094801F0FC
:103470005BFA0CF0FDF80020DCE7FE208005D9E7C0
:1034800040A5020048A502008CF20200070080FF60
:10349000D1650300C4B0020010B583070CD10368E6
:1034A0000A4CA34202D123F0B5FB10BD084CA34245
:1034B00002D120F0DCFCF8E71FF0EAFD054902002C
:1034C000054801F031FA0CF0D3F8C04618EA0200C2
:1034D00078C1020081650300C4B0020013B50C007E
:1034E00001A9FFF7D9FF019BA34206D0220003499F
:1034F000034801F019FA0CF0BBF813BDA4650300F2
:103500003CB10200F7B505000C0017001E00D30700
:103510000ED557100197019B002B1FDA1B19019341
:10352000002E1DD0002B15DA002301930198FEBD5B
:1035300001A91000FFF74CFF0028ECD138006C689F
:103540001FF0A6FD220003000B490C4801F0ECF926
:103550000CF08EF8A342E9D90194E7E7002EF9D1E7
:10356000019B002B01DBA342E0D36A6804490548B4
:1035700001F0DAF9ECE7C04647650300C4B0020089
:103580006B650300B8AD020010B50400830710D1CD
:103590000D4B02689A420CD10C4B0340062B06D10E
:1035A000C00822F070F943000120184310BD806864
:1035B000F9E72000FFF7E6FD4369181EF6D0210069
:1035C00001209847F2E7C046A8B20200070080FF3A
:1035D000164B70B5040000209C4203D0144DAC4241
:1035E00001D1012070BD134B00209C42FAD001266E
:1035F0002640864203D06010431E98410DE0200013
:10360000FFF7C0FD4369002B09D021003000984727
:10361000002804D0401B43425841C0B2E2E72000DA
:10362000FFF7B2FF0028DCD00138E5E740A5020033
:1036300048A5020084F1020010B50400FFF7A4FFC2
:10364000002809D120001FF023FD0449020004488E
:1036500001F06AF90CF00CF810BDC04603660300D7
:10366000C4B0020070B504000D001600FFF78AFD1B
:10367000036A002B05D0320029002000984700285B
:1036800018D10D4D2000002E08D11FF001FD0200C1
:103690000A49280001F048F90BF0EAFF042E04D192
:1036A0001FF0F6FC06490200F3E71FF0F1FC0549A4
:1036B0000200EEE770BDC046C4B002006B660300B6
:1036C00096660300B766030010B51FF0F8FC0028EB
:1036D00002D102480DF028FB10BDC0462265030050
:1036E0000F2310B51940012908D00300002909D083
:1036F000022909D122F043FA030003E0044B002819
:1037000000D1044B180010BD22F054FAF4E7C04673
:1037100048A5020040A5020010B50C0022F06CFA8A
:10372000631E184207D0020023000349034801F03A
:10373000FBF80BF09DFF10BDE46603003CB10200F6
:1037400010B54A680249D20023F04AFB10BDC046BA
:103750000C67030070B50B0006001400101E0FD09C
:1037600071681800042A0ED1FFF7D6FF7368012B89
:1037700003D0022B05D0006800E0007822F0FFF9AA
:1037800070BD0088FAE7FFF7C7FF05002000FFF7CC
:103790000DFE726803000548012A03D0022A03D0F7
:1037A0002B60EDE72B70EBE72B80E9E784F102005B
:1037B00010B50D4C206824F0EAFF002807D00B4B11
:1037C0001B78002B03D1206803685B6898470023AF
:1037D000074A1370074A1370FDF7DAF905F048FA43
:1037E0000EF0FEFA10BDC04668290020F42D00201E
:1037F000F32D0020392E002070B5050094B000286C
:1038000004D13F481DF006FC14B070BD08A80BF0B1
:1038100009FF041E19D12E68290004A80122FEF711
:1038200043FE23002200310004A808F0BDFA040082
:1038300003200EF0BDFB200023F087F8012040425A
:103840000EF0B6FB0BF00CFFDEE7012040420EF05D
:10385000AFFB09992B48FFF7D1FC0998FFF792FCC1
:103860002949040012F0FAF90028CDD12749200097
:1038700012F0F4F90028C7D1099C01AA694620007A
:1038800001F0F2F802AA322104A803F0C3FA009B67
:10389000022B05D9019B1E495A6802A823F0A0FA01
:1038A0002000FFF76FFC1B4BC2689A4210D12368BF
:1038B00019495A6802A823F093FAE368002B07D04D
:1038C0005A68002A04D00022996802A8FFF772FC07
:1038D00003200EF06DFB04A820F04FF80AF0EAFE7A
:1038E00004A820F01EF8012040420EF061FB0B4BB3
:1038F0009A6C002A00D187E700229A6484E7C046C8
:1039000052670300DCF0020088B0020030AE020013
:103910007F670300E947000088670300782E0020D6
:10392000F8B54E4C1321200026F01EF8200003218C
:1039300026F0D3F84A4C01234A4A1321200015F0FF
:10394000FBFB01220221200015F026FC464C200042
:1039500012F0D6FD454F3860200012F0EDFF444DC7
:103960002860102026F010FA040029680025414E36
:103970003A68330013F026FB3F4B1C603F48FEF7CC
:10398000ADFFE120C000FEF7B9FF3D493D480EF014
:1039900097FB0CF0ADF90AF009FE00F05DFA12F0A9
:1039A00015FC300025F03AFB20F0F6FB00F080FC1F
:1039B00003F0E6F906F0FCF80AF0EAF9324C334875
:1039C000230088331D600DF021FD0DF0FDFC0AF091
:1039D000F1F92F4F3B78012B0ED1002307211A005C
:1039E0002C4800F06DFD031E1DD00100F7204000A3
:1039F00000F0EEFEFFF700FF3B78002B2AD112F01B
:103A000015FA0028F8D0244822F0D2F90DF0ECFC89
:103A10000822002121481DF011FA230098348C332C
:103A20001D602560AAE7F822920211784D2909D17C
:103A30005178502906D1F7205288194940001EF0CC
:103A400005FFD7E70122174917200CF0E1FE22F00D
:103A5000A6FFD1E712F03AFAD3E7C0464829002082
:103A600060290020F1300200E829002064290020AC
:103A700068290020702900206C29002000400020C7
:103A80004829002048010020782E0020B13700008E
:103A9000EA0000208C67030094670300F82E0020E2
:103AA00004E0030010EA020010B5084C084A0621A1
:103AB000200013F059FB074A0749200026F059F966
:103AC00000221E21054825F0B3FA10BD7029002000
:103AD000C8AA02000000002021710100E82900208E
:103AE000FF230322DB05CB1810B59343042804D829
:103AF00016F09CF906030F0416000021080010BD03
:103B00000021181C16F066FB0A490028F6D00A4965
:103B1000F4E7181C17F004FB012140000143EDE716
:103B2000802109065B18022193431943034BC918EE
:103B3000E4E7C04648A5020040A5020000008080DE
:103B4000FF23DB0510B50400C818032398430023A6
:103B500086B00193063300931022613302A90BF063
:103B6000D7FA02A9200023F07AF82E2102A81DF02E
:103B70007FFB00280FD1652102A81DF079FB0028EA
:103B800009D16E2102A81DF073FB002803D103495F
:103B9000200023F064F806B010BDC0463D7303005A
:103BA00030B50C001100002285B01D0000920123E9
:103BB0002000FCF707FB002C23D02868124B0340A1
:103BC000062B06D0032420420ED1104B02689A42E5
:103BD0000AD103A902F0FAF8002203990092130017
:103BE00003F07AFD05B030BD03002340022BF9D06D
:103BF000FFF714FC03000220A3431843044BC01832
:103C0000F0E70448EEE7C046070080FF9CDF0200B3
:103C10000000808002008080F0B5050087B01000B1
:103C20000191FFF7FBFB041C0390681F182800D9C3
:103C3000BDE016F0FBF80D121F24333E6F81BCBCB3
:103C4000BCBCBC0D121F24333E6F9FA8ADB2B700A1
:103C50000198211C16F0E6FB03E0211C019817F0E7
:103C600085F8019003230198524A9843013B03438E
:103C70009B187CE0211C019816F046FFF1E700211B
:103C8000201C16F0A7FA002803D04B494B4822F01D
:103C9000A7FE03A901A81FF04EFAE3E70021201CAC
:103CA00016F098FA0028F0D1211C019816F054FD66
:103CB000D7E70021201C16F08DFA0028E5D1211C41
:103CC000019819F023FE0021041C019016F082FADD
:103CD000002807D0039A0023002A01DA80231B065C
:103CE0000193BFE70021201C039E012716F078FAFC
:103CF000002800D1071C0021301C012516F070FAA5
:103D0000002800D1051CFFB2EDB2AF42AAD0311C91
:103D1000201C9FE7019D0021281C16F05BFA00285B
:103D200005D00021201C16F05BFA0028ADD1211C23
:103D3000281C19F0CFFE94E70021201C16F04AFA47
:103D40000028A2D103A901A81FF0F5F9032202203F
:103D5000019B1849934303435B180493039B9343CC
:103D600003435B1804A905930DF0FCFC0300180045
:103D700007B0F0BD0199201C16F046FA104B002840
:103D8000F5D1104BF3E70199201C16F029FAF5E75D
:103D90000199201C16F01EFAF0E70199201C16F07C
:103DA0003DFAEBE70199201C16F024FAE6E7002320
:103DB000DDE7C04600008080A267030078B1020002
:103DC00048A5020040A50200F8B5214E3568696893
:103DD00001292DD9AA684B1ED05C0A2828D1002BB6
:103DE00001DC1C0009E0581E145C0A2CF9D0030009
:103DF000F5E7105D202802D10134A142F9D8002B4B
:103E00000BDD601C814208D1581E002805D0013806
:103E1000175C0A2F0CD0202FF7D05218023AE31A61
:103E200014789B083A3C624254411C19002C00D182
:103E3000F8BD084F0422390028001FF034FD04218A
:103E400038000AF0EBFB3369013C04333361EDE7E2
:103E5000002A00200573030010B52022002102482B
:103E60001CF0ECFF10BDC046D82E0020084B10B54A
:103E7000426818600020986018750138D860080002
:103E80005A601A61996121F093FFFFF79DFF10BD01
:103E9000002A0020F8B503780400002B1ED0104D36
:103EA000286E002804D021001DF04CFA002815D0FF
:103EB00020001DF08BFA471C38001EF0D9FB061EAF
:103EC0000CD03A0021001CF027FF2A00054B5C3281
:103ED0001968043B99609342FAD12E66F8BDC0463A
:103EE000782E0020F02E0020F0B5B84C020020689B
:103EF000A568436885B00193002D00D0FDE0531EF6
:103F0000042B11D8636801998B4200D195E0012AF6
:103F100000D12AE1022A07D123696268934200D9BD
:103F20004FE10122524288E0032A00D185E0042AB1
:103F300000D12FE1052A00D107E1062A0ED123691D
:103F4000019A9342AD416D42002DEADD23682900BC
:103F500098682369C0180AF061FB1FE00B2A21D181
:103F6000019B2269991A1FF05EFD2368019A5B6824
:103F7000934204D213002269981A0AF085FB226842
:103F8000236951689068C91AC0180AF047FB236872
:103F900058682369C01A401B0AF064FB23695D1945
:103FA0002561BEE70E2A13D1E368002BB9DB013B84
:103FB000E3606268019B991A1FF035FDE368002BEE
:103FC00018DB1633824A9B00D318996820680FE0EB
:103FD000102A16D1E368062BA3DC5D1C7C4A17333C
:103FE0009B00D318996800299BD06368E560436003
:103FF0001FF0DEFC63682269D61A22685568ED1A44
:104000000AE0152A0CD12369626861689A1A1FF0C8
:1040100012FD236962689E1A0127002E2FDCA4E797
:104020000D2A0DD16B4821F0C3FE20681FF0A5FCBE
:104030006368C018FFF72EFF0022100005B0F0BD26
:1040400001231B2A62D0082A01D07F2A20D12169AE
:104050006268914200D864E700238668B618F75C6E
:10406000202F13D101339F18B942F8D80426032B0F
:1040700000DC033E891B32001FF0DDFC012730000D
:104080000AF0F0FA23699E1B266178E00126F1E729
:10409000092A28D1636822698068D11AC0184E4A5B
:1040A00003AB05F0FBFF061E00D13AE70027431CD7
:1040B0000BD1A06921F07CFE63682269D11A2268C5
:1040C0009068C0180AF0AAFA4FE723692068F91827
:1040D000039B01375A1C03921A781FF092FCBE42D0
:1040E000F3D1350041E71300203B5E2B00D918E7E0
:1040F00021691FF08FFC012537E7012D08D104232A
:104100004F2A03D002235B2A00D00023A36008E7D4
:10411000022D20D11300303B092B03D80323227535
:10412000A360FEE60023A360412A00D152E7422AA1
:1041300000D139E7432A00D101E7442A00D1EBE658
:10414000482A12D0462A00D0EBE60027019B2269BC
:104150003E009D1A0EE00021032D29D17E2A24D194
:10416000237D312B01D0372B0DD100252F00236962
:1041700062689E1A0023A3609E4200DD7FE7002F45
:1041800000D1E1E6F1E61A00FB25343A2A42DCD000
:10419000332B0AD12169019B994206D201221FF0DB
:1041A0004AFC002501272E00E4E700252F00FAE74E
:1041B000042D04D1462AC8D0482AD6D0A5E7A1604C
:1041C000AFE6002501262F0059E7C046002A00204F
:1041D000782E0020126F0300DCF0020080235B05C4
:1041E0001869034B1B7843438020C002C01A7047F4
:1041F000EA2D002080235B051869034B1B7843439D
:104200008020C002C01A7047EB2D002070B5084D09
:10421000C4012B680021181922F0BCFC2868054B4A
:1042200000197F3000781B788342F0D270BDC04601
:104230001C2A0020E92D002010B5C3790400002BB2
:1042400008D0064A037981791068DB01C018013073
:1042500022F0A0FC0023237210BDC0461C2A0020BF
:1042600010B5124B01001A684379DB01D31818000E
:104270007F300478FF2C08D10879C00112185278D9
:10428000FF2A0FD0887990420CD08A799B1801328E
:10429000D2B258787E2A01D08A7110BD00234C71A9
:1042A0008B71FAE701204042F7E7C0461C2A002044
:1042B00070B5F8248025A40223786D054D2B4CD1D0
:1042C0002B698020E41A2B69C002E41A2969001BBB
:1042D00015F0C0FD2B4B2C4918702B69E2185218B1
:1042E0005D421540294B2A4A9B1A2A4A9B18802274
:1042F000520511699D4234D38020C002401B15F045
:10430000A9FD254B641B1870E411244BE4B21C700A
:10431000A12001230025224A22491360C0004D60DC
:104320004B68002BFCD01358DBB2A342F7D21E49D6
:1043300001330B7001235360FFF750FF0378050032
:104340001A4CFD2B0FD180235B051869184BC0094F
:10435000C018C0012818206070BD80242B69E402B9
:10436000AFE76D18C5E7FFF745FF0378803DFD2BEC
:1043700001D12560F0E7FFF73DFFFD2122F00AFCA7
:10438000F7E7C046EB2D0020FF87FFFF1401002058
:1043900000000020F8CB0300EA2D0020E92D0020CA
:1043A00000D00040FCD00040EC2D00201C2A002052
:1043B000FFFFFF01F7B5254B254F1A78254B140059
:1043C0001B7839680133E001405CFF2829D00134B3
:1043D000E4B29C4200D101249442F4D1802300260F
:1043E0005B051B69DB090193E30100933B68E20174
:1043F0009D182B7828005A425341F61822F0E0FB12
:10440000002810D0002304E0DA01AA5C002A0AD1B7
:104410000133019A9342F7D13868009BC01822F00B
:10442000C5FB2000FEBD0B4B01341B78E4B2013309
:104430009C4200D10124054B1B78A342D4D1072E06
:1044400002D91EF0F9FEB6E7FF24EAE7EC2D0020C2
:104450001C2A0020E92D0020F7B507000D000124DB
:104460000E4B1B7801930E4B1E68019BA34202D298
:10447000FF242000FEBDE10171180B78FE2B09D14D
:104480008B78AB4206D103312A0038001CF01EFCA9
:104490000028EED00134E4B2E7E7C046E92D002061
:1044A0001C2A002010B5054A03791068DB01C018EA
:1044B00081780022033001F031F810BD1C2A002061
:1044C000F0B585B002900D0016000393782948D806
:1044D000FFF7C2FF0400002E3BD0FF2801D0FFF7FA
:1044E00095FEFFF767FF0400FF2803D11E491F4810
:1044F00022F076FA1E4FC0013B680190FE21181889
:1045000022F048FB3B68019AE9B29818023022F089
:1045100041FB3868019B2A00C018033002990DF056
:104520008FF80C201EF097F8039A0300002A16D08B
:10453000104A1A600E4A1C7112685C71E401141969
:10454000A278DE7102329A7101221A72039A5A72AB
:1045500002E03300FF28E4D1180005B0F0BD064AA0
:10456000E7E70023F8E7C046B36703005CAF02004B
:104570001C2A002040EE0200ECEE020007B501A963
:1045800001F024FC0199FFF767FFFF2803D10449DC
:10459000044822F025FAFFF739FE03480EBDC04655
:1045A000E66703005CAF020084F10200F7B50192F8
:1045B000027A04000091002A02D124480CF0F0F99C
:1045C000C579002D06D1224A17680279D201D25D41
:1045D000002A05D1092201251A606D422800FEBD7E
:1045E00061797E22C901791808007F30A3790078AB
:1045F000D21AFF2809D12079C00138184078FF2845
:1046000019D0C01A824200D902000198461B964276
:1046100000D91600002EE1D0009A01335019C918B4
:1046200032001CF079FBA3799B19DBB27E2B04D0FE
:10463000A371AD19D4E70022E7E70023A3716379E2
:10464000DB01FB187F331B786371F2E7C967030056
:104650001C2A0020F0B585B00393037A0400029170
:104660000192002B02D130480CF09AF9C379002B4B
:1046700008D02E4A03791268DB019B5C019A0092F4
:10468000002B25D10923039A13600A3B019301985B
:1046900005B0F0BD7E22A379D71A009A974200D9BF
:1046A00017006079214E0133C001C01833683A0009
:1046B000181802990CF0C4FFA379DB19DBB27E2B2A
:1046C0000AD0A371029BDB190293009BDB1B0093B2
:1046D000009B002BDED1DAE70023A371FFF76AFE0F
:1046E0000500FF2809D12079FFF790FD00232372F0
:1046F0001C23039A13601D3BC8E760793368C0012F
:10470000181829007F3022F045FA3368ED01581956
:10471000617922F03FFA62793368D2019B187F33C6
:104720001B786371CEE7C046C96703001C2A0020CE
:10473000002170B508001FF083FB012405000C4B1D
:104740001B78A34201D2280070BD0A4AE301106819
:10475000C0180378FE2B08D181780022033000F0C6
:10476000DDFE0100280002F079FC0134E4B2E6E746
:10477000E92D00201C2A002073B501A901F026FBB9
:104780000199FFF769FEFF2803D10E490E4822F078
:1047900027F900257E260D4B1C68C301E3185978C4
:1047A0009B780233DBB2C201A2187F321078FF2857
:1047B00004D1C81A401921F0E2F976BDF31AED18B8
:1047C0000023F0E7E66703005CAF02001C2A00202C
:1047D0001FB5034A034B1DF0FCFF05B000BDC046EA
:1047E0006142000039420000F7B50D0011000022BF
:1047F0000600009228001F000B4BFBF7E3FC102083
:104800001DF036FF041E08D1084B094A094C5A62B4
:10481000002326602000A360FEBD390028000CF0B4
:10482000A1FFE060F4E7C046FFFF0000782E002003
:1048300010EA0200902E002010B5013810C90CF0CB
:1048400091FFE060004810BD84F10200F8B57F25BB
:1048500053B204000E0017001540002B0ADB6B1E3C
:10486000012B07D80B68586821F012F801002000CE
:1048700022F0F5F9022D16D10F49200022F0EFF9B0
:10488000F368002B02D05A68002A04D10B4920009B
:1048900022F0E5F9F8BD012A07D10022996820002D
:1048A000FEF788FCF6E7002DEAD03A00F168200018
:1048B0000CF0FEFEEEE7C046B2C70300FCC70300E3
:1048C000C36803485A68002A00D098687047C046F9
:1048D00084F10200136810B51400002B0BD0FC23E8
:1048E000FF33994206D10C4B52689A4202D1002301
:1048F000C380236010BD094B994201D1C368F8E71A
:10490000074B02689A42F5D1064B9942F2D1FFF764
:10491000D7FF2060EEE7C04684F1020003020000EA
:1049200010B00200E30200000EB470B5050087B0BD
:1049300010201DF09DFE041E0BD11A4B1A4A1B4C71
:104940009D6118625A62200007B070BC08BC03B0B9
:10495000184700210560816001200CF003FF25212C
:10496000E06005000B981CF083FC061E09D10B9833
:104970001CF02CFD320001000B9800F0CFFDA86068
:10498000E1E702A810211EF0AAFF0CAA0B9902A8C9
:10499000019202F09FFA02A90548E56800F088FD3F
:1049A000EDE7C046782E002010EA0200902E00208D
:1049B0009CDF020010B50300820708D1064A016897
:1049C000914204D1054AD9680120914203D004499B
:1049D000180011F043F910BD04F90200E947000086
:1049E00050AC020010B50400FEF7CCFB034BC268CC
:1049F0009A4200D024690023A36010BDE94700005B
:104A0000F8B516001D0004000F00FEF7BBFB154BA8
:104A1000C2689A4200D02469A068002811D10C30E5
:104A20001DF026FEA06000280AD003236360E28800
:104A3000A1689300CB180332E2801F605E609D6026
:104A4000F8BDE388A18802338B42F0DB0331890093
:104A500001221DF02BFE0028F2D0A388A0600333B2
:104A6000A380E4E7E947000070B5150004000E00DC
:104A7000FEF788FB064BC2689A4200D02469A368FF
:104A8000002B02D133602B6070BDE2883260FAE700
:104A9000E947000001220020074B08495A600860DE
:104AA000A821DA60064AC9005A5006495A50043112
:104AB0005A5005495A50704700A000400CAC0040C5
:104AC000FCFF0000440500004C050000034B0448B7
:104AD0001B78002B00D103487047C046EE2D002004
:104AE00048A5020040A50200F8B5A826324A334B7B
:104AF000F600196813680420CB18C9181160304AF1
:104B00008C4612781B11170009112E4A2E4C2F4D7E
:104B1000002F48D0002B3ADA9051C31AA920C000C8
:104B2000135081239B00002937DA591A1351515130
:104B30000123274CD3602378002B22D03F22254825
:104B4000254B01688C331B6801310A409D5C1C4B6E
:104B50001B78002B01D0803D6D001C230260624653
:104B60006B4308339B1A154A9B1013601F2319408F
:104B700007D11A4B1A78002A03D0194819700CF083
:104B80004BFD01232278042053402370F8BDA92750
:104B90000433FF00D0519351C3E7535181239B004D
:104BA000C9181151C4E7043390515351A9208123EE
:104BB000C0009B001350F3E7202A0020302A002079
:104BC000E800002000A000404C0500004405000063
:104BD000ED2D0020242A0020782E0020E90000205E
:104BE000C133020030B585B001220400080001A9DC
:104BF000FEF76AFD029A202A00D920220023019D97
:104C0000934204D0E85CE11808710133F8E70148E9
:104C100005B030BD84F1020070B504000800150035
:104C2000FEF798FB1F2802D90C480BF0B9FE002DA7
:104C300002D10B480CF078F82418042D04D101207F
:104C400023795B00184370BD2800FEF783FBFF2823
:104C500001D90448E9E720710348F4E72768030015
:104C60003B680300B368030084F102000123A02223
:104C7000834010B5134CD20513510300C133124CBD
:104C8000FF339B009C50114B8900C918A223DB0005
:104C9000CA580F4C00022240CA50F822520110405C
:104CA000C022CC589202224310430322C850CC5851
:104CB000084822432043C850C046C046C046CA5098
:104CC00010BDC0460C05000003030000006000405A
:104CD000FFE0ECFF031F0000A0221E21114BD200B9
:104CE00070B59C58104D8C439C50A324E4001D517A
:104CF0000E4C0F4D0F4E5C5104355E510E4D800031
:104D00005C51A5240D4DE4001D51084C0C4D0019BB
:104D10000C4C185104341D510B4C18519858014338
:104D2000995070BD00F0014040A10040006000407B
:104D30001C05000044A100402405000048A10040DB
:104D40004CA100402C0500003405000010B5040003
:104D50000A49FBF7E1FC0A4BA0211C6001236079A2
:104D6000084A8340C9058B500021FFF77FFF0020D0
:104D7000FFF7B2FF0022044B1A7010BD409E0200E4
:104D8000282A00200C050000E800002070B50D0066
:104D90000400134E28003100FBF7BEFC3100200058
:104DA000FBF7BAFC0F4BA0221C600F4BD2051D6015
:104DB000607901242100814026000C4BD150697993
:104DC0008E400021D650FFF751FF68792100FFF790
:104DD0004DFF2000FFF780FF054B1C7070BDC046E3
:104DE000409E0200282A00202C2A00200C050000EA
:104DF000E8000020F8B50025FFF74CFE214B280005
:104E000090331D600CF0D6FBA0221E201E4B1F49C4
:104E10001D701F4BD2001D601E4B1F4C1D608B5818
:104E20001E4F83438B50A223DB00E2581C4E3A40B6
:104E3000E250E2581B493243E2500122E5501A4B3E
:104E4000186843799A401300A022D2055350FBF70B
:104E50004DFC164B1B78AB4213D0154B1149E25851
:104E60001740E750E25816430122E650E550114B37
:104E7000186843799A401300A022D2055350FBF7DB
:104E800035FCF8BD782E0020EE2D002000F001400A
:104E9000202A0020302A002000600040FFE0ECFFC4
:104EA000001F03000C050000282A0020E800002055
:104EB000140500002C2A0020F0B53E4E8DB03300C2
:104EC00090331B680500002B03D1FFF793FF0DB053
:104ED000F0BD002801D00DF01DF968460AF0A2FBD4
:104EE000002822D13300903318680BF063F90400D6
:104EF0000AF0B6FB002D01D00DF016F92E4B202242
:104F00001D6833006D118C3301356D011B68154030
:104F10005D19002C2DD190362100280034601BF043
:104F20008DFF0122254B1A70D1E7002D01D00DF025
:104F3000FBF8019B2249186810F090FE0024050040
:104F4000A042DBD1019F3800FEF71CF91D4B9842AF
:104F50000BD1290001200CF005FC2A000400F860A8
:104F60001F21194800F0DAFAA060019B0024B36405
:104F7000C4E72000FEF706F9144B984209D033002D
:104F800000229033124913481A601EF0D1F9B06420
:104F90009DE763682B60A3686B60E368AB6023697F
:104FA000EB6063692B61A3696B61E369AB61236AA1
:104FB000EB61B6E7782E0020242A0020E9000020CB
:104FC00010B00200A8AE0200F56703005CB2020058
:104FD00015680300C4B0020010B5FFF70BFF0148CD
:104FE00010BDC04684F10200F0B589B00493734B44
:104FF00003901B780E001500002B01D0FFF7FAFE7E
:105000006F4C8C342368002B06D16D4A40209032BF
:1050100013601DF020FB206080226A4BD200DA670B
:105020000122694C694BE250FFF734FD0023684AC6
:10503000F021A3500432A3500832A350C222090326
:105040009200A150634F093AFF3AA3500594BE4223
:1050500000D0A3E0B54200D09DE05F4D07AC280032
:10506000FBF74EFB002805D001235C492800237084
:10507000FBF752FB5A4D2800FBF742FB002805D0F6
:105080000123564928006370FBF746FB554D280065
:10509000FBF736FB002805D0012350492800A370F8
:1050A000FBF73AFB002307AA5F1C9B5C002B39D05F
:1050B0004D4ABB00043BD458A02203213D00637934
:1050C000D205C133FF339B00995007ABEB5C002B3B
:1050D00026D00426444BAA00D358019301226379B9
:1050E000A0219A40A123C905DB00CA50019B0533CA
:1050F000180002931EF044F9012811D16379A02110
:1051000098403A4BC905C85002981EF039F900285A
:1051100006D1013E002EE1D1019949E00225D4E7F4
:10512000022DFBD10123022FBDD12B4801F032FE0D
:10513000FFF70CFE002103980BF002F80025012474
:105140003F221F4B802190331860294B1D70294B43
:105150001C70294B1A601A4B12198C3318681BF0FB
:105160006DFE2800FFF7A8FE244B144E1C60059B23
:1051700050221C602249280034700CF0E7F9049B8F
:10518000AB4219D00E4B3278002A15D09A6C002A07
:1051900012D120BFF7E71B480BF0C6FD300001F02D
:1051A000F9FD0400BD42C3D0280001F0F3FD010069
:1051B0002000FFF7EBFDBDE709B0F0BDEE2D0020AC
:1051C000782E002004E100E000A00040FC0F000069
:1051D0000405000084F1020084BF0200109E02005A
:1051E000CCBF0200DCBF020028B202000C050000A8
:1051F000ED2D0020E9000020242A00200CAC004006
:10520000E94A00006068030010B5084B86B002ACA4
:10521000009301940423FBF705F802982379E268D0
:10522000A168FFF7E1FE024806B010BD34B20200EB
:1052300084F10200014B1878C0B27047EE2D0020B7
:1052400010B524201DF007FA0400044B202208C0EA
:1052500080211BF0F3FD200010BDC0465CB20200AF
:10526000F8B5070008000D001600FDF78BFF304B66
:1052700098425BD1781F0F2858D814F0D7FD080842
:105280003257575757575757575757303055FFF7DB
:10529000D7FF04230400EA5CE2540133242BFAD143
:1052A0003000FDF76FFF224B98423FD10121052FBF
:1052B00002D0122F00D002390422FF20B35CA55C7B
:1052C000803B4B435B19FF2B03D90500DB179D4344
:1052D0002B00A3540132242AF0D12000F8BD2C0069
:1052E000DEE7FFF7ADFF04230400EA5CE25401337C
:1052F000242BFAD13000FEF791F80F211EF065F84B
:105300002100FF25221D24311378803B4343DB130A
:105310008033FF2B03D92E00DB179E43330013701D
:1053200001329142F0D1D8E72C00E3E70024D4E722
:105330005CB20200032230B502400121002A04D1F0
:10534000084C05680B00A54209D00B00034006D1AC
:10535000002A04D1036804481B1A5842434118002C
:1053600030BDC04650A502008CF2020010B504000A
:10537000FFF7E0FF012200280AD1032302002340A7
:10538000022B05D103480440063C2200541EA241D2
:10539000100010BD070080FF044B88600B60044BB9
:1053A00008004B600023CB607047C0468CA402000D
:1053B000D736020010B5FDF7E5FE084B42680848F5
:1053C000D31859424B41AC215B428B43B021890039
:1053D0005B180449FFF7A8FA0AF04AF940FDFFFFFD
:1053E000C4B0020082680300F7B504000E00019308
:1053F00001208B180A0000210093009B934212D8D1
:105400002725002900D0053D224F2A003900200021
:1054100021F0E6FC009B9E4214D32A0039002000B4
:1054200021F0DEFCF7BD1378272B08D0223B5D422C
:105430006B41DBB20132002BDFD02725E4E70023EC
:105440000100F7E73278AA4205D12A00124920006C
:1054500021F0C6FC1AE011495C2A14D01F2A09D990
:105460007F2A15D0019B002B02D053B2002B07DB03
:105470003900ECE70A490A2A05D00A490D2A02D068
:10548000092A05D10849200021F0E9FB0136C1E7CE
:105490000649DCE78B6C03008A6C03008E6C03000A
:1054A000916C0300946C0300976C03009A6C0300EA
:1054B000194B70B506000C0098420FD14968A068DE
:1054C00006F066FE051E09D020001EF02AFA002311
:1054D000ED00236006331D43280070BD10201DF031
:1054E000BAF86168050081600660A06806F032FEC7
:1054F00063686860591C2368994208D1A368EB600F
:105500000023EA68A9685354A3602360E4E7A06815
:105510001DF0BFF8E860F3E79CDF020070B50400FF
:105520000D00002A05D006F065FEC30006201843D2
:1055300070BD06F02DFE0028F7D12A002100024898
:105540001DF0A1FFF4E7C0469CDF020010B50A0081
:10555000010002481DF097FF10BDC046A8B202002E
:10556000094B10B50340062B01D1C00810BD8307BD
:1055700008D1064B02689A4204D18168C06806F0DF
:1055800039FEF3E7FFF716FF070080FF9CDF0200FC
:10559000064B10B50340062B03D1C00820F07DF95F
:1055A00010BD8368C0680B60FAE7C046070080FF43
:1055B000F0B50F00002589B0110006001C0038006E
:1055C000009503232A00FAF7FDFD0E20AF420FD00D
:1055D000012F0FD102AA102104A801F01BFC2168A1
:1055E00002A82A00FDF7E6FD04A93000FFF760FFDE
:1055F00009B0F0BD2068830722D1164B02689A4299
:105600001ED104A9FFF7C4FF134B05002068034017
:10561000062B13D1C00820F031F90400002C04D16E
:105620000499280006F096FD04001020049F1DF048
:1056300012F806608760C5604460D9E74468EDE70A
:1056400004A90122FEF740F8002205990498FFF70B
:1056500065FFCDE7A8B20200070080FFF0B58DB06E
:1056600004000391FDF78EFD04A906002000FFF75A
:105670008FFF039B01902F489A0705D11B68834237
:105680000AD02D4A934207D0C36800220293012119
:1056900003AB029CA0470390002406AA05A9039827
:1056A000FDF7FAFE2500059BA3420ED82900002530
:1056B00008A81EF025F90A9C059BAB4221D808A931
:1056C0003000FFF7F5FE0DB0F0BD069BA700D859DE
:1056D000FDF758FDB04202D018480BF025FB002C16
:1056E00001D0049BED18069BD859154B0340062B9F
:1056F00005D1C00820F0C7F82D180134D3E7806821
:10570000FAE7002D06D02000049A01991BF004FB53
:10571000049BE418069AAB00985807A9FFF738FFD6
:10572000079A010020001BF0F7FA079B0135E418E7
:10573000C2E7C04678C1020018EA0200C76C030045
:10574000070080FFF0B58BB0049008680D0006924A
:105750000793FDF717FD04006868FDF713FD0600C9
:10576000A04202D06868FFF725FE08A92868FFF765
:105770000FFF040009A96868FFF70AFF089A05905F
:10578000A3180393049B2700022B19D9AB681D496A
:105790008B4206D0012130000091210006F0A4FECA
:1057A0000700049B032B0BD0EB68164A934207D0EB
:1057B0000122210000923000089A06F095FE039025
:1057C000039B059AD91B069B38000093099B1DF08B
:1057D0003BFE002806D1079B0138002B0CD00A485D
:1057E0000BF0DEF8094B9E4208D10100200020F0AA
:1057F000A2F84400012020430BB0F0BD041B64005C
:10580000F8E7C04684F10200B36C03009CDF02009D
:10581000F0B5070087B008680D00FDF7B3FC04A9D8
:1058200006002868FFF7B4FE05A904006868FFF7C2
:10583000AFFE03902000022F07D901230093AB682D
:10584000049A2100300006F04FFE059A041B049BC9
:10585000A418064D9C4205D803991BF037FA00287E
:1058600000D1034D280007B0F0BDC04640A502009E
:1058700048A5020073B50D00060069462868FFF7C9
:1058800087FE01A904006868FFF782FE0100022E6E
:1058900002D908480BF076FA019A0098064D824228
:1058A00006D8801A20181BF011FA002800D1034DE9
:1058B000280076BDA16C030040A5020048A50200A7
:1058C000F0B58FB0079010680C001600FDF75AFC79
:1058D0000690012C31D07068FDF754FC069B98426D
:1058E00002D07068FFF766FD0DA97068FFF750FEE3
:1058F0000D9B089009930DA93068FFF749FE0D9B99
:105900000B900493079B012B1CD1049B5D1E01236C
:105910005B420A9300242700049B03940593059B94
:10592000002B13D1039B002B23D1214B069A0E2071
:105930009A4200D01F480FB0F0BD072309931E4BB9
:105940000893D8E7012300250A93E3E70B9B099905
:105950005A190123089800931DF076FD002816D1EE
:10596000039B002B19D1079B002B09D12F00049B0F
:105970005C1E049B0134E21B934212D13068DAE7CB
:10598000079B2C00012B0AD001232F0003930A9BB5
:10599000ED18059B013B0593C1E72C00F7E7039F3A
:1059A000E7E70B9B0698D9191DF06DFDC3E7C046CC
:1059B0009CDF020098B20200206D0300F0B589B0B0
:1059C000049008680D00FDF7DDFB04006868FDF732
:1059D000D9FB0700A04202D06868FFF7EBFC06A9DC
:1059E0002868FFF7D5FD060007A96868FFF7D0FD16
:1059F000069A0590B3180393049B3400022B19D91F
:105A0000AB681E498B4206D001213800009131005D
:105A100006F06AFD0400049B032B0BD0EB68174AC9
:105A2000934207D00122310000923800069A06F016
:105A30005BFD03900025079BAB4212D1039B200026
:105A4000191B1FF087FF013045000120284309B0D2
:105A5000F0BD059920001BF039F9002808D1013567
:105A60003400079A039BA6189E42F2D96D00ECE71A
:105A700020001FF057FF0600F2E7C04684F1020045
:105A800010B5010001481DF0F0FD10BD7559020070
:105A900010B5010001481DF0E8FD10BD8759020056
:105AA000F7B50600080001A9FFF772FD019B05008C
:105AB000002B01D11348FEBD134B04009E4207D1B9
:105AC0000027019A631B9A4211D8002F07D1F1E7F2
:105AD0000E4B9E42F4D0019A631B9A4201D80C48A7
